{"abi":[{"type":"constructor","inputs":[{"name":"treasury","type":"address","internalType":"address payable"}],"stateMutability":"nonpayable"},{"type":"function","name":"BPS_DENOMINATOR","inputs":[],"outputs":[{"name":"","type":"uint256","internalType":"uint256"}],"stateMutability":"view"},{"type":"function","name":"approveRefund","inputs":[{"name":"taskId","type":"bytes32","internalType":"bytes32"}],"outputs":[],"stateMutability":"nonpayable"},{"type":"function","name":"approveRelease","inputs":[{"name":"taskId","type":"bytes32","internalType":"bytes32"}],"outputs":[],"stateMutability":"nonpayable"},{"type":"function","name":"createEscrow","inputs":[{"name":"taskId","type":"bytes32","internalType":"bytes32"},{"name":"worker","type":"address","internalType":"address"},{"name":"verifiers","type":"address[]","internalType":"address[]"},{"name":"approvalsRequired","type":"uint8","internalType":"uint8"},{"name":"marketplaceFeeBps","type":"uint16","internalType":"uint16"},{"name":"verifierFeeBps","type":"uint16","internalType":"uint16"}],"outputs":[],"stateMutability":"payable"},{"type":"function","name":"getEscrow","inputs":[{"name":"taskId","type":"bytes32","internalType":"bytes32"}],"outputs":[{"name":"","type":"tuple","internalType":"struct TaskEscrow.Escrow","components":[{"name":"client","type":"address","internalType":"address"},{"name":"worker","type":"address","internalType":"address"},{"name":"amount","type":"uint256","internalType":"uint256"},{"name":"marketplaceFeeBps","type":"uint16","internalType":"uint16"},{"name":"verifierFeeBps","type":"uint16","internalType":"uint16"},{"name":"status","type":"uint8","internalType":"enum TaskEscrow.Status"},{"name":"approvalsRequired","type":"uint8","internalType":"uint8"},{"name":"releaseApprovalCount","type":"uint8","internalType":"uint8"},{"name":"refundApprovalCount","type":"uint8","internalType":"uint8"}]}],"stateMutability":"view"},{"type":"function","name":"getVerifiers","inputs":[{"name":"taskId","type":"bytes32","internalType":"bytes32"}],"outputs":[{"name":"","type":"address[]","internalType":"address[]"}],"stateMutability":"view"},{"type":"function","name":"marketplaceTreasury","inputs":[],"outputs":[{"name":"","type":"address","internalType":"address payable"}],"stateMutability":"view"},{"type":"event","name":"EscrowCreated","inputs":[{"name":"taskId","type":"bytes32","indexed":true,"internalType":"bytes32"},{"name":"client","type":"address","indexed":true,"internalType":"address"},{"name":"worker","type":"address","indexed":true,"internalType":"address"},{"name":"amount","type":"uint256","indexed":false,"internalType":"uint256"},{"name":"marketplaceFeeBps","type":"uint16","indexed":false,"internalType":"uint16"},{"name":"verifierFeeBps","type":"uint16","indexed":false,"internalType":"uint16"},{"name":"approvalsRequired","type":"uint8","indexed":false,"internalType":"uint8"},{"name":"verifierCount","type":"uint8","indexed":false,"internalType":"uint8"}],"anonymous":false},{"type":"event","name":"EscrowRefunded","inputs":[{"name":"taskId","type":"bytes32","indexed":true,"internalType":"bytes32"},{"name":"client","type":"address","indexed":true,"internalType":"address"},{"name":"refundedAmount","type":"uint256","indexed":false,"internalType":"uint256"},{"name":"verifierFee","type":"uint256","indexed":false,"internalType":"uint256"},{"name":"approvalsUsed","type":"uint8","indexed":false,"internalType":"uint8"}],"anonymous":false},{"type":"event","name":"EscrowReleased","inputs":[{"name":"taskId","type":"bytes32","indexed":true,"internalType":"bytes32"},{"name":"worker","type":"address","indexed":true,"internalType":"address"},{"name":"workerAmount","type":"uint256","indexed":false,"internalType":"uint256"},{"name":"marketplaceFee","type":"uint256","indexed":false,"internalType":"uint256"},{"name":"verifierFee","type":"uint256","indexed":false,"internalType":"uint256"},{"name":"approvalsUsed","type":"uint8","indexed":false,"internalType":"uint8"}],"anonymous":false},{"type":"event","name":"RefundApprovalSubmitted","inputs":[{"name":"taskId","type":"bytes32","indexed":true,"internalType":"bytes32"},{"name":"verifier","type":"address","indexed":true,"internalType":"address"},{"name":"approvals","type":"uint8","indexed":false,"internalType":"uint8"},{"name":"approvalsRequired","type":"uint8","indexed":false,"internalType":"uint8"}],"anonymous":false},{"type":"event","name":"ReleaseApprovalSubmitted","inputs":[{"name":"taskId","type":"bytes32","indexed":true,"internalType":"bytes32"},{"name":"verifier","type":"address","indexed":true,"internalType":"address"},{"name":"approvals","type":"uint8","indexed":false,"internalType":"uint8"},{"name":"approvalsRequired","type":"uint8","indexed":false,"internalType":"uint8"}],"anonymous":false},{"type":"error","name":"AlreadyApproved","inputs":[]},{"type":"error","name":"DuplicateVerifier","inputs":[{"name":"verifier","type":"address","internalType":"address"}]},{"type":"error","name":"EscrowAlreadyExists","inputs":[]},{"type":"error","name":"InvalidAmount","inputs":[]},{"type":"error","name":"InvalidEscrowState","inputs":[]},{"type":"error","name":"InvalidFeeConfiguration","inputs":[]},{"type":"error","name":"InvalidVerifierConfiguration","inputs":[]},{"type":"error","name":"ReentrancyGuardActive","inputs":[]},{"type":"error","name":"TransferFailed","inputs":[{"name":"recipient","type":"address","internalType":"address"}]},{"type":"error","name":"Unauthorized","inputs":[]},{"type":"error","name":"ZeroAddress","inputs":[]}],"bytecode":{"object":"0x60a060405234801561000f575f5ffd5b5060405161249038038061249083398181016040528101906100319190610135565b5f73ffffffffffffffffffffffffffffffffffffffff168173ffffffffffffffffffffffffffffffffffffffff1603610096576040517fd92e233d00000000000000000000000000000000000000000000000000000000815260040160405180910390fd5b8073ffffffffffffffffffffffffffffffffffffffff1660808173ffffffffffffffffffffffffffffffffffffffff168152505060015f8190555050610160565b5f5ffd5b5f73ffffffffffffffffffffffffffffffffffffffff82169050919050565b5f610104826100db565b9050919050565b610114816100fa565b811461011e575f5ffd5b50565b5f8151905061012f8161010b565b92915050565b5f6020828403121561014a576101496100d7565b5b5f61015784828501610121565b91505092915050565b60805161230a6101865f395f8181610e86015281816112b501526115a5015261230a5ff3fe60806040526004361061006f575f3560e01c80637ee09b361161004d5780637ee09b36146100ff57806382421b051461011b578063e1a4521814610145578063f023b8111461016f5761006f565b80632f6b29dc1461007357806336f672741461009b57806379bf1a37146100c3575b5f5ffd5b34801561007e575f5ffd5b5061009960048036038101906100949190611a39565b6101ab565b005b3480156100a6575f5ffd5b506100c160048036038101906100bc9190611a39565b6104e4565b005b3480156100ce575f5ffd5b506100e960048036038101906100e49190611a39565b61081d565b6040516100f69190611b4b565b60405180910390f35b61011960048036038101906101149190611c63565b6108b9565b005b348015610126575f5ffd5b5061012f610e84565b60405161013c9190611d2d565b60405180910390f35b348015610150575f5ffd5b50610159610ea8565b6040516101669190611d5e565b60405180910390f35b34801561017a575f5ffd5b5061019560048036038101906101909190611a39565b610eae565b6040516101a29190611ecc565b60405180910390f35b60025f54036101e6576040517f1762c6f300000000000000000000000000000000000000000000000000000000815260040160405180910390fd5b60025f819055505f60015f8381526020019081526020015f2090506001600381111561021557610214611d95565b5b8160030160049054906101000a900460ff16600381111561023957610238611d95565b5b14610270576040517fa891029a00000000000000000000000000000000000000000000000000000000815260040160405180910390fd5b60035f8381526020019081526020015f205f3373ffffffffffffffffffffffffffffffffffffffff1673ffffffffffffffffffffffffffffffffffffffff1681526020019081526020015f205f9054906101000a900460ff166102ff576040517f82b4290000000000000000000000000000000000000000000000000000000000815260040160405180910390fd5b60055f8381526020019081526020015f205f3373ffffffffffffffffffffffffffffffffffffffff1673ffffffffffffffffffffffffffffffffffffffff1681526020019081526020015f205f9054906101000a900460ff161561038f576040517f101f817a00000000000000000000000000000000000000000000000000000000815260040160405180910390fd5b600160055f8481526020019081526020015f205f3373ffffffffffffffffffffffffffffffffffffffff1673ffffffffffffffffffffffffffffffffffffffff1681526020019081526020015f205f6101000a81548160ff02191690831515021790555060018160030160078282829054906101000a900460ff166104149190611f13565b92506101000a81548160ff021916908360ff1602179055503373ffffffffffffffffffffffffffffffffffffffff16827f3da21e4e6f0cfbfe652639d6343cbff61aa0144241374e18ef7a011166a508668360030160079054906101000a900460ff168460030160059054906101000a900460ff16604051610497929190611f56565b60405180910390a38060030160059054906101000a900460ff1660ff168160030160079054906101000a900460ff1660ff16106104d9576104d8828261105e565b5b5060015f8190555050565b60025f540361051f576040517f1762c6f300000000000000000000000000000000000000000000000000000000815260040160405180910390fd5b60025f819055505f60015f8381526020019081526020015f2090506001600381111561054e5761054d611d95565b5b8160030160049054906101000a900460ff16600381111561057257610571611d95565b5b146105a9576040517fa891029a00000000000000000000000000000000000000000000000000000000815260040160405180910390fd5b60035f8381526020019081526020015f205f3373ffffffffffffffffffffffffffffffffffffffff1673ffffffffffffffffffffffffffffffffffffffff1681526020019081526020015f205f9054906101000a900460ff16610638576040517f82b4290000000000000000000000000000000000000000000000000000000000815260040160405180910390fd5b60045f8381526020019081526020015f205f3373ffffffffffffffffffffffffffffffffffffffff1673ffffffffffffffffffffffffffffffffffffffff1681526020019081526020015f205f9054906101000a900460ff16156106c8576040517f101f817a00000000000000000000000000000000000000000000000000000000815260040160405180910390fd5b600160045f8481526020019081526020015f205f3373ffffffffffffffffffffffffffffffffffffffff1673ffffffffffffffffffffffffffffffffffffffff1681526020019081526020015f205f6101000a81548160ff02191690831515021790555060018160030160068282829054906101000a900460ff1661074d9190611f13565b92506101000a81548160ff021916908360ff1602179055503373ffffffffffffffffffffffffffffffffffffffff16827f536977f11f71d562b7e708b68861fd788b51d353ea1130d7b21a191dd69e1c968360030160069054906101000a900460ff168460030160059054906101000a900460ff166040516107d0929190611f56565b60405180910390a38060030160059054906101000a900460ff1660ff168160030160069054906101000a900460ff1660ff16106108125761081182826111b7565b5b5060015f8190555050565b606060025f8381526020019081526020015f208054806020026020016040519081016040528092919081815260200182805480156108ad57602002820191905f5260205f20905b815f9054906101000a900473ffffffffffffffffffffffffffffffffffffffff1673ffffffffffffffffffffffffffffffffffffffff1681526020019060010190808311610864575b50505050509050919050565b5f73ffffffffffffffffffffffffffffffffffffffff168673ffffffffffffffffffffffffffffffffffffffff160361091e576040517fd92e233d00000000000000000000000000000000000000000000000000000000815260040160405180910390fd5b5f3403610957576040517f2c5211c600000000000000000000000000000000000000000000000000000000815260040160405180910390fd5b5f600381111561096a57610969611d95565b5b60015f8981526020019081526020015f2060030160049054906101000a900460ff16600381111561099e5761099d611d95565b5b146109d5576040517fed77877900000000000000000000000000000000000000000000000000000000815260040160405180910390fd5b5f8161ffff168361ffff166109ea9190611f8c565b90506127108163ffffffff161115610a2e576040517f6d24edae00000000000000000000000000000000000000000000000000000000815260040160405180910390fd5b5f8686905090505f811480610a4557505f8560ff16145b80610a525750808560ff16115b15610a89576040517f368d1e0200000000000000000000000000000000000000000000000000000000815260040160405180910390fd5b60ff8016811115610ac6576040517f368d1e0200000000000000000000000000000000000000000000000000000000815260040160405180910390fd5b5f60015f8b81526020019081526020015f20905033815f015f6101000a81548173ffffffffffffffffffffffffffffffffffffffff021916908373ffffffffffffffffffffffffffffffffffffffff16021790555088816001015f6101000a81548173ffffffffffffffffffffffffffffffffffffffff021916908373ffffffffffffffffffffffffffffffffffffffff16021790555034816002018190555084816003015f6101000a81548161ffff021916908361ffff160217905550838160030160026101000a81548161ffff021916908361ffff16021790555060018160030160046101000a81548160ff02191690836003811115610bcb57610bca611d95565b5b0217905550858160030160056101000a81548160ff021916908360ff1602179055505f60025f8c81526020019081526020015f2090505f5f90505b83811015610e08575f8a8a83818110610c2257610c21611fc3565b5b9050602002016020810190610c379190611ff0565b90505f73ffffffffffffffffffffffffffffffffffffffff168173ffffffffffffffffffffffffffffffffffffffff1603610c9e576040517fd92e233d00000000000000000000000000000000000000000000000000000000815260040160405180910390fd5b60035f8e81526020019081526020015f205f8273ffffffffffffffffffffffffffffffffffffffff1673ffffffffffffffffffffffffffffffffffffffff1681526020019081526020015f205f9054906101000a900460ff1615610d3957806040517f74e26d12000000000000000000000000000000000000000000000000000000008152600401610d30919061202a565b60405180910390fd5b600160035f8f81526020019081526020015f205f8373ffffffffffffffffffffffffffffffffffffffff1673ffffffffffffffffffffffffffffffffffffffff1681526020019081526020015f205f6101000a81548160ff0219169083151502179055508281908060018154018082558091505060019003905f5260205f20015f9091909190916101000a81548173ffffffffffffffffffffffffffffffffffffffff021916908373ffffffffffffffffffffffffffffffffffffffff16021790555050806001019050610c06565b508973ffffffffffffffffffffffffffffffffffffffff163373ffffffffffffffffffffffffffffffffffffffff168c7ffd7face0ceb1713feaff7150876e1287974bf0ac03ad76b113e09e57cd714c09348a8a8d8a604051610e6f959493929190612052565b60405180910390a45050505050505050505050565b7f000000000000000000000000000000000000000000000000000000000000000081565b61271081565b610eb6611933565b60015f8381526020019081526020015f20604051806101200160405290815f82015f9054906101000a900473ffffffffffffffffffffffffffffffffffffffff1673ffffffffffffffffffffffffffffffffffffffff1673ffffffffffffffffffffffffffffffffffffffff168152602001600182015f9054906101000a900473ffffffffffffffffffffffffffffffffffffffff1673ffffffffffffffffffffffffffffffffffffffff1673ffffffffffffffffffffffffffffffffffffffff16815260200160028201548152602001600382015f9054906101000a900461ffff1661ffff1661ffff1681526020016003820160029054906101000a900461ffff1661ffff1661ffff1681526020016003820160049054906101000a900460ff166003811115610fea57610fe9611d95565b5b6003811115610ffc57610ffb611d95565b5b81526020016003820160059054906101000a900460ff1660ff1660ff1681526020016003820160069054906101000a900460ff1660ff1660ff1681526020016003820160079054906101000a900460ff1660ff1660ff16815250509050919050565b5f816002015490505f6127108360030160029054906101000a900461ffff1661ffff168361108c91906120a3565b6110969190612111565b90505f81836110a59190612141565b905060038460030160046101000a81548160ff021916908360038111156110cf576110ce611d95565b5b02179055505f84600201819055505f81111561111257611111845f015f9054906101000a900473ffffffffffffffffffffffffffffffffffffffff1682611385565b5b5f61111e86845f61143d565b9050845f015f9054906101000a900473ffffffffffffffffffffffffffffffffffffffff1673ffffffffffffffffffffffffffffffffffffffff16867f201ffa666f22724d1a1878648fbcdaf923ce78bf2f2267ce5473bc904079a09e84848960030160079054906101000a900460ff1660405161119e93929190612174565b60405180910390a36111af86611775565b505050505050565b5f816002015490505f612710836003015f9054906101000a900461ffff1661ffff16836111e491906120a3565b6111ee9190612111565b90505f6127108460030160029054906101000a900461ffff1661ffff168461121691906120a3565b6112209190612111565b90505f8183856112309190612141565b61123a9190612141565b905060028560030160046101000a81548160ff0219169083600381111561126457611263611d95565b5b02179055505f85600201819055505f8111156112a8576112a7856001015f9054906101000a900473ffffffffffffffffffffffffffffffffffffffff1682611385565b5b5f8311156112db576112da7f000000000000000000000000000000000000000000000000000000000000000084611385565b5b5f6112e88784600161143d565b9050856001015f9054906101000a900473ffffffffffffffffffffffffffffffffffffffff1673ffffffffffffffffffffffffffffffffffffffff16877f85f6252ba48e2cac79312ea002438939472ba44a476b0a7ec92c39d68ae4abc68487858b60030160069054906101000a900460ff1660405161136b94939291906121a9565b60405180910390a361137c87611775565b50505050505050565b5f810315611439575f8273ffffffffffffffffffffffffffffffffffffffff16826040516113b290612219565b5f6040518083038185875af1925050503d805f81146113ec576040519150601f19603f3d011682016040523d82523d5f602084013e6113f1565b606091505b505090508061143757826040517f39f1c8d900000000000000000000000000000000000000000000000000000000815260040161142e9190612288565b60405180910390fd5b505b5050565b5f5f830361144d575f905061176e565b5f60025f8681526020019081526020015f2090505f5f828054905090505f5f90505b81811015611598575f84828154811061148b5761148a611fc3565b5b905f5260205f20015f9054906101000a900473ffffffffffffffffffffffffffffffffffffffff1690505f876115195760055f8b81526020019081526020015f205f8373ffffffffffffffffffffffffffffffffffffffff1673ffffffffffffffffffffffffffffffffffffffff1681526020019081526020015f205f9054906101000a900460ff16611573565b60045f8b81526020019081526020015f205f8373ffffffffffffffffffffffffffffffffffffffff1673ffffffffffffffffffffffffffffffffffffffff1681526020019081526020015f205f9054906101000a900460ff165b9050801561158b5760018561158891906122a1565b94505b505080600101905061146f565b505f82036115d5576115ca7f000000000000000000000000000000000000000000000000000000000000000087611385565b85935050505061176e565b5f82876115e29190612111565b90505f83826115f191906120a3565b886115fc9190612141565b90505f5f90505b83811015611767575f86828154811061161f5761161e611fc3565b5b905f5260205f20015f9054906101000a900473ffffffffffffffffffffffffffffffffffffffff1690505f896116ad5760055f8d81526020019081526020015f205f8373ffffffffffffffffffffffffffffffffffffffff1673ffffffffffffffffffffffffffffffffffffffff1681526020019081526020015f205f9054906101000a900460ff16611707565b60045f8d81526020019081526020015f205f8373ffffffffffffffffffffffffffffffffffffffff1673ffffffffffffffffffffffffffffffffffffffff1681526020019081526020015f205f9054906101000a900460ff165b90508061171557505061175c565b5f8590505f8511156117405760018161172e91906122a1565b905060018561173d9190612141565b94505b61174a8382611385565b808a61175691906122a1565b99505050505b806001019050611603565b5050505050505b9392505050565b5f60025f8381526020019081526020015f2090505f818054905090505f5f90505b81811015611911575f8382815481106117b2576117b1611fc3565b5b905f5260205f20015f9054906101000a900473ffffffffffffffffffffffffffffffffffffffff1690505f60035f8781526020019081526020015f205f8373ffffffffffffffffffffffffffffffffffffffff1673ffffffffffffffffffffffffffffffffffffffff1681526020019081526020015f205f6101000a81548160ff0219169083151502179055505f60045f8781526020019081526020015f205f8373ffffffffffffffffffffffffffffffffffffffff1673ffffffffffffffffffffffffffffffffffffffff1681526020019081526020015f205f6101000a81548160ff0219169083151502179055505f60055f8781526020019081526020015f205f8373ffffffffffffffffffffffffffffffffffffffff1673ffffffffffffffffffffffffffffffffffffffff1681526020019081526020015f205f6101000a81548160ff02191690831515021790555050806001019050611796565b5060025f8481526020019081526020015f205f61192e91906119c5565b505050565b6040518061012001604052805f73ffffffffffffffffffffffffffffffffffffffff1681526020015f73ffffffffffffffffffffffffffffffffffffffff1681526020015f81526020015f61ffff1681526020015f61ffff1681526020015f60038111156119a4576119a3611d95565b5b81526020015f60ff1681526020015f60ff1681526020015f60ff1681525090565b5080545f8255905f5260205f20908101906119e091906119e3565b50565b5b808211156119fa575f815f9055506001016119e4565b5090565b5f5ffd5b5f5ffd5b5f819050919050565b611a1881611a06565b8114611a22575f5ffd5b50565b5f81359050611a3381611a0f565b92915050565b5f60208284031215611a4e57611a4d6119fe565b5b5f611a5b84828501611a25565b91505092915050565b5f81519050919050565b5f82825260208201905092915050565b5f819050602082019050919050565b5f73ffffffffffffffffffffffffffffffffffffffff82169050919050565b5f611ab682611a8d565b9050919050565b611ac681611aac565b82525050565b5f611ad78383611abd565b60208301905092915050565b5f602082019050919050565b5f611af982611a64565b611b038185611a6e565b9350611b0e83611a7e565b805f5b83811015611b3e578151611b258882611acc565b9750611b3083611ae3565b925050600181019050611b11565b5085935050505092915050565b5f6020820190508181035f830152611b638184611aef565b905092915050565b611b7481611aac565b8114611b7e575f5ffd5b50565b5f81359050611b8f81611b6b565b92915050565b5f5ffd5b5f5ffd5b5f5ffd5b5f5f83601f840112611bb657611bb5611b95565b5b8235905067ffffffffffffffff811115611bd357611bd2611b99565b5b602083019150836020820283011115611bef57611bee611b9d565b5b9250929050565b5f60ff82169050919050565b611c0b81611bf6565b8114611c15575f5ffd5b50565b5f81359050611c2681611c02565b92915050565b5f61ffff82169050919050565b611c4281611c2c565b8114611c4c575f5ffd5b50565b5f81359050611c5d81611c39565b92915050565b5f5f5f5f5f5f5f60c0888a031215611c7e57611c7d6119fe565b5b5f611c8b8a828b01611a25565b9750506020611c9c8a828b01611b81565b965050604088013567ffffffffffffffff811115611cbd57611cbc611a02565b5b611cc98a828b01611ba1565b95509550506060611cdc8a828b01611c18565b9350506080611ced8a828b01611c4f565b92505060a0611cfe8a828b01611c4f565b91505092959891949750929550565b5f611d1782611a8d565b9050919050565b611d2781611d0d565b82525050565b5f602082019050611d405f830184611d1e565b92915050565b5f819050919050565b611d5881611d46565b82525050565b5f602082019050611d715f830184611d4f565b92915050565b611d8081611d46565b82525050565b611d8f81611c2c565b82525050565b7f4e487b71000000000000000000000000000000000000000000000000000000005f52602160045260245ffd5b60048110611dd357611dd2611d95565b5b50565b5f819050611de382611dc2565b919050565b5f611df282611dd6565b9050919050565b611e0281611de8565b82525050565b611e1181611bf6565b82525050565b61012082015f820151611e2c5f850182611abd565b506020820151611e3f6020850182611abd565b506040820151611e526040850182611d77565b506060820151611e656060850182611d86565b506080820151611e786080850182611d86565b5060a0820151611e8b60a0850182611df9565b5060c0820151611e9e60c0850182611e08565b5060e0820151611eb160e0850182611e08565b50610100820151611ec6610100850182611e08565b50505050565b5f61012082019050611ee05f830184611e17565b92915050565b7f4e487b71000000000000000000000000000000000000000000000000000000005f52601160045260245ffd5b5f611f1d82611bf6565b9150611f2883611bf6565b9250828201905060ff811115611f4157611f40611ee6565b5b92915050565b611f5081611bf6565b82525050565b5f604082019050611f695f830185611f47565b611f766020830184611f47565b9392505050565b5f63ffffffff82169050919050565b5f611f9682611f7d565b9150611fa183611f7d565b9250828201905063ffffffff811115611fbd57611fbc611ee6565b5b92915050565b7f4e487b71000000000000000000000000000000000000000000000000000000005f52603260045260245ffd5b5f60208284031215612005576120046119fe565b5b5f61201284828501611b81565b91505092915050565b61202481611aac565b82525050565b5f60208201905061203d5f83018461201b565b92915050565b61204c81611c2c565b82525050565b5f60a0820190506120655f830188611d4f565b6120726020830187612043565b61207f6040830186612043565b61208c6060830185611f47565b6120996080830184611f47565b9695505050505050565b5f6120ad82611d46565b91506120b883611d46565b92508282026120c681611d46565b915082820484148315176120dd576120dc611ee6565b5b5092915050565b7f4e487b71000000000000000000000000000000000000000000000000000000005f52601260045260245ffd5b5f61211b82611d46565b915061212683611d46565b925082612136576121356120e4565b5b828204905092915050565b5f61214b82611d46565b915061215683611d46565b925082820390508181111561216e5761216d611ee6565b5b92915050565b5f6060820190506121875f830186611d4f565b6121946020830185611d4f565b6121a16040830184611f47565b949350505050565b5f6080820190506121bc5f830187611d4f565b6121c96020830186611d4f565b6121d66040830185611d4f565b6121e36060830184611f47565b95945050505050565b5f81905092915050565b50565b5f6122045f836121ec565b915061220f826121f6565b5f82019050919050565b5f612223826121f9565b9150819050919050565b5f819050919050565b5f61225061224b61224684611a8d565b61222d565b611a8d565b9050919050565b5f61226182612236565b9050919050565b5f61227282612257565b9050919050565b61228281612268565b82525050565b5f60208201905061229b5f830184612279565b92915050565b5f6122ab82611d46565b91506122b683611d46565b92508282019050808211156122ce576122cd611ee6565b5b9291505056fea264697066735822122010da9aef74452f02f8f127fb1a0d100da206098f019fe7399e788b33a5286a3264736f6c634300081e0033","linkReferences":{}},"methodIdentifiers":{"BPS_DENOMINATOR()":"e1a45218","approveRefund(bytes32)":"2f6b29dc","approveRelease(bytes32)":"36f67274","createEscrow(bytes32,address,address[],uint8,uint16,uint16)":"7ee09b36","getEscrow(bytes32)":"f023b811","getVerifiers(bytes32)":"79bf1a37","marketplaceTreasury()":"82421b05"},"id":20}